{
  "_format": "hh-sol-artifact-1",
  "contractName": "WavePortal",
  "sourceName": "contracts/WavePortal.sol",
  "abi": [
    {
      "inputs": [],
      "stateMutability": "payable",
      "type": "constructor"
    },
    {
      "anonymous": false,
      "inputs": [
        {
          "indexed": true,
          "internalType": "address",
          "name": "_from",
          "type": "address"
        },
        {
          "indexed": false,
          "internalType": "string",
          "name": "message",
          "type": "string"
        },
        {
          "indexed": false,
          "internalType": "uint256",
          "name": "timestamp",
          "type": "uint256"
        }
      ],
      "name": "NewWave",
      "type": "event"
    },
    {
      "inputs": [
        {
          "internalType": "string",
          "name": "_message",
          "type": "string"
        }
      ],
      "name": "WaveMe",
      "outputs": [],
      "stateMutability": "nonpayable",
      "type": "function"
    },
    {
      "inputs": [],
      "name": "getWave",
      "outputs": [
        {
          "components": [
            {
              "internalType": "address",
              "name": "waver",
              "type": "address"
            },
            {
              "internalType": "string",
              "name": "message",
              "type": "string"
            },
            {
              "internalType": "uint256",
              "name": "timestamp",
              "type": "uint256"
            }
          ],
          "internalType": "struct WavePortal.Wave[]",
          "name": "",
          "type": "tuple[]"
        }
      ],
      "stateMutability": "view",
      "type": "function"
    },
    {
      "inputs": [],
      "name": "getWaveNo",
      "outputs": [
        {
          "internalType": "uint256",
          "name": "",
          "type": "uint256"
        }
      ],
      "stateMutability": "view",
      "type": "function"
    }
  ],
  "bytecode": "0x6080604052610928806100136000396000f3fe608060405234801561001057600080fd5b50600436106100415760003560e01c80631d319c441461004657806382f4209114610064578063ee87a5ce14610080575b600080fd5b61004e61009e565b60405161005b91906105f4565b60405180910390f35b61007e6004803603810190610079919061043b565b6101ef565b005b610088610327565b6040516100959190610646565b60405180910390f35b60606001805480602002602001604051908101604052809291908181526020016000905b828210156101e657838290600052602060002090600302016040518060600160405290816000820160009054906101000a900473ffffffffffffffffffffffffffffffffffffffff1673ffffffffffffffffffffffffffffffffffffffff1673ffffffffffffffffffffffffffffffffffffffff16815260200160018201805461014b906107f1565b80601f0160208091040260200160405190810160405280929190818152602001828054610177906107f1565b80156101c45780601f10610199576101008083540402835291602001916101c4565b820191906000526020600020905b8154815290600101906020018083116101a757829003601f168201915b50505050508152602001600282015481525050815260200190600101906100c2565b50505050905090565b6001600080828254610201919061071d565b92505081905550600160405180606001604052803373ffffffffffffffffffffffffffffffffffffffff16815260200183815260200142815250908060018154018082558091505060019003906000526020600020906003020160009091909190915060008201518160000160006101000a81548173ffffffffffffffffffffffffffffffffffffffff021916908373ffffffffffffffffffffffffffffffffffffffff16021790555060208201518160010190805190602001906102c7929190610330565b506040820151816002015550503373ffffffffffffffffffffffffffffffffffffffff167f6728ef66814a55b797863bf8ffcd954b19cbca4ed4f0e6cf04c980705fd82c36824260405161031c929190610616565b60405180910390a250565b60008054905090565b82805461033c906107f1565b90600052602060002090601f01602090048101928261035e57600085556103a5565b82601f1061037757805160ff19168380011785556103a5565b828001600101855582156103a5579182015b828111156103a4578251825591602001919060010190610389565b5b5090506103b291906103b6565b5090565b5b808211156103cf5760008160009055506001016103b7565b5090565b60006103e66103e184610686565b610661565b9050828152602081018484840111156103fe57600080fd5b6104098482856107af565b509392505050565b600082601f83011261042257600080fd5b81356104328482602086016103d3565b91505092915050565b60006020828403121561044d57600080fd5b600082013567ffffffffffffffff81111561046757600080fd5b61047384828501610411565b91505092915050565b60006104888383610586565b905092915050565b61049981610773565b82525050565b60006104aa826106c7565b6104b481856106ea565b9350836020820285016104c6856106b7565b8060005b8581101561050257848403895281516104e3858261047c565b94506104ee836106dd565b925060208a019950506001810190506104ca565b50829750879550505050505092915050565b600061051f826106d2565b61052981856106fb565b93506105398185602086016107be565b610542816108e1565b840191505092915050565b6000610558826106d2565b610562818561070c565b93506105728185602086016107be565b61057b816108e1565b840191505092915050565b600060608301600083015161059e6000860182610490565b50602083015184820360208601526105b68282610514565b91505060408301516105cb60408601826105d6565b508091505092915050565b6105df816107a5565b82525050565b6105ee816107a5565b82525050565b6000602082019050818103600083015261060e818461049f565b905092915050565b60006040820190508181036000830152610630818561054d565b905061063f60208301846105e5565b9392505050565b600060208201905061065b60008301846105e5565b92915050565b600061066b61067c565b90506106778282610823565b919050565b6000604051905090565b600067ffffffffffffffff8211156106a1576106a06108b2565b5b6106aa826108e1565b9050602081019050919050565b6000819050602082019050919050565b600081519050919050565b600081519050919050565b6000602082019050919050565b600082825260208201905092915050565b600082825260208201905092915050565b600082825260208201905092915050565b6000610728826107a5565b9150610733836107a5565b9250827fffffffffffffffffffffffffffffffffffffffffffffffffffffffffffffffff0382111561076857610767610854565b5b828201905092915050565b600061077e82610785565b9050919050565b600073ffffffffffffffffffffffffffffffffffffffff82169050919050565b6000819050919050565b82818337600083830152505050565b60005b838110156107dc5780820151818401526020810190506107c1565b838111156107eb576000848401525b50505050565b6000600282049050600182168061080957607f821691505b6020821081141561081d5761081c610883565b5b50919050565b61082c826108e1565b810181811067ffffffffffffffff8211171561084b5761084a6108b2565b5b80604052505050565b7f4e487b7100000000000000000000000000000000000000000000000000000000600052601160045260246000fd5b7f4e487b7100000000000000000000000000000000000000000000000000000000600052602260045260246000fd5b7f4e487b7100000000000000000000000000000000000000000000000000000000600052604160045260246000fd5b6000601f19601f830116905091905056fea26469706673582212208287fe3fa723002abb09a1aeb0d6e2d20b437c1778083dedbf0714203f37697364736f6c63430008040033",
  "linkReferences": {},
  "deployedLinkReferences": {}
}